:020000040800F2
:10000000887D00202D03000887340008F12D0008AA
:1000100085340008BD0A0008ED410008000000001A
:100020000000000000000000000000006D02000859
:10003000C10C000800000000C9020008A136000839
:100040004703000847030008470300084703000868
:100050004703000847030008470300084703000858
:100060004703000847030008470300084703000848
:100070004703000847030008470300084703000838
:10008000E10B0008ED0B00084703000847030008D8
:10009000C10A000847030008470300084703000897
:1000A0004703000847030008470300084703000808
:1000B00047030008470300084703000847030008F8
:1000C00047030008470300084703000847030008E8
:1000D0004703000851410008654100084703000834
:1000E00047030008470300084703000847030008C8
:1000F00047030008470300084703000847030008B8
:1001000047030008470300084703000847030008A7
:100110004703000847030008470300084703000897
:1001200047030008F90B0008050C00084703000806
:100130004703000847030008470300084703000877
:10014000CD0A0008470300084703000847030008DA
:1001500047030008110C0008470300087941000814
:100160004703000847030008470300084703000847
:100170004703000847030008470300080000000089
:1001800047030008470300089D3B0008A13C000806
:100190004703000847030008470300084703000817
:1001A00000000000000000004703000800F002F813
:1001B00000F04CF80AA090E8000C82448344AAF1B5
:1001C0000107DA4501D100F041F8AFF2090EBAE8B3
:1001D0000F0013F0010F18BFFB1A43F0010318477B
:1001E00094AA0000B4AA00000A4410F8014B14F0CD
:1001F0000F0508BF10F8015B240908BF10F8014B78
:100200006D1E05D010F8013B6D1E01F8013BF9D1C0
:10021000641E03D0641E01F8015BFBD19142E4D35C
:10022000704700000023002400250026103A28BF54
:1002300078C1FBD8520728BF30C148BF0B60704758
:100240001FB509F09BFE1FBD10B510BD00F074FA7C
:100250001146FFF7F5FF06F02DFC00F092FA03B40B
:10026000FFF7F2FF03BC04F0E7FB00002C4B19681A
:100270000868B0E8F04F80F30988BFF36F8F4FF044
:10028000000080F3118870470000000008480068F3
:10029000006880F308884FF0000080F3148862B68D
:1002A00061B6BFF34F8FBFF36F8F00DF00BF00BF9A
:1002B00008ED00E0DFF80C00016841F47001016016
:1002C000704700BF88ED00E0EFF30980BFF36F8F48
:1002D000134B1A681EF0100F08BF20ED108A20E99A
:1002E000F04F106009B44FF0500080F31188BFF355
:1002F0004F8FBFF36F8F07F015FE4FF0000080F3B4
:10030000118809BC19680868B0E8F04F1EF0100F9A
:1003100008BFB0EC108A80F30988BFF36F8F704775
:1003200030000020EFF30580704700000948804747
:1003300009480047FEE7FEE7FEE7FEE7FEE7FEE7C7
:10034000FEE7FEE7FEE7FEE704480549054A064BDF
:10035000704700004D370008AD0100088877002085
:10036000887D002088790020887900209FED1A1A66
:10037000F5EE000A40EE010ABDEEE00AF5EEC00A15
:1003800010EE100AF1EE10FA38BF401E00EE100A0F
:100390001349F7EE001AB8EEC00A30EEC00ADFEDDE
:1003A0000F0A20EE200AFCEEC00A10EE900AC0F3FD
:1003B000080000EE900A01EB8000F8EE600A90ED74
:1003C000011A70EE600A90ED000A71EEE01A21EE5B
:1003D000800A00EE810A704783F9223E0000004443
:1003E00024A30008DFED190AB5EEC00A60EE200A6A
:1003F000BDEEE01A11EE100AF1EE10FA38BF401E01
:1004000000EE100A1349F7EE001AB8EEC00A30EEFB
:10041000C00ADFED0F0A60EE200ABCEEE00A10EE23
:10042000100AC0F3080000EE100A01EB8000B8EEDD
:10043000400A90ED011A70EEC00A90ED000A71EECC
:10044000E01A21EE800A00EE810A704783F9223E0D
:100450000000004424A30008704753EA020C00F097
:1004600069802DE9F04B4FF00006002B1FBFB3FA57
:1004700083F503FA05F424FA05F65E4012BF16432D
:10048000B2FA82F502FA05F4C5F120051EBF22FA80
:1004900005FC44EA0C04203556EA044C4FEA1444A7
:1004A00018BF641C4FF000084FF00009904271EB38
:1004B000030C39D3002919BFB1FA81F701FA07F605
:1004C000B0FA80F700FA07F6C7F120071EBF20FA3E
:1004D00007FC46EA0C062037B6FBF4FCA7EB050741
:1004E000103F07F01F0BCBF120060CFA0BFB2CFA88
:1004F00006F644BFB3460026202FA4BF5E464FF049
:10050000000B5BEA060C08BF4FF0010B19EB0B095F
:10051000ABFB027C48EB0608C01B06FB02CC0BFBC6
:1005200003CC71EB0C01C1E70B460246414648463D
:10053000BDE8F08B13B54FF000004FF00001AFF3B2
:100540000080BDE81C407047032A40F2308010F064
:10055000030C00F0158011F8013BBCF1020F62445E
:1005600098BF11F801CB00F8013B38BF11F8013BEF
:10057000A2F1040298BF00F801CB38BF00F8013B9C
:1005800011F0030300F02580083AC0F0088051F80C
:10059000043B083A51F804CBA0E80810F5E7121D17
:1005A0005CBF51F8043B40F8043BAFF30080D20736
:1005B00024BF11F8013B11F801CB48BF11F8012B02
:1005C00024BF00F8013B00F801CB48BF00F8012B25
:1005D000704710B5203AC0F00B80B1E81850203AAF
:1005E000A0E81850B1E81850A0E81850BFF4F5AFD3
:1005F0005FEA027C24BFB1E81850A0E8185044BF5D
:1006000018C918C0BDE810405FEA827C24BF51F8C9
:10061000043B40F8043B08BF7047D20728BF31F8BD
:10062000023B48BF11F8012B28BF20F8023B48BF0E
:1006300000F8012B704702F0FF0343EA032242EA6D
:10064000024200F002B84FF000020429C0F012800C
:1006500010F0030C00F01B80CCF1040CBCF1020F75
:1006600018BF00F8012BA8BF20F8022BA1EB0C014A
:1006700000F00DB85FEAC17C24BF00F8012B00F840
:10068000012B48BF00F8012B70474FF0000200B566
:10069000134694469646203922BFA0E80C50A0E8A5
:1006A0000C50B1F12001BFF4F7AF090728BFA0E853
:1006B0000C5048BF0CC05DF804EB890028BF40F81F
:1006C000042B08BF704748BF20F8022B11F0804F61
:1006D00018BF00F8012B704770477047704770478C
:1006E00010B500F00DF8006810BD10B5044600F01C
:1006F00007F8046010BD0000004870472477002010
:1007000000487047247700201FB584B000200A9C61
:1007100006AB04AA02A90094AFF3008018B1DDE98A
:10072000020108B010BD0348204000F038F8002056
:100730000146F6E70000207C7546FFF7DDFFAE4678
:1007400005006946534620F00700854618B020B5DD
:10075000FFF7FAFDBDE820404FF000064FF000071C
:100760004FF000084FF0000B21F00701AC46ACE859
:10077000C009ACE8C009ACE8C009ACE8C0098D46C6
:10078000704710B50446AFF300802046BDE8104026
:10079000FFF765BD002801D004F04EB9704710B5D1
:1007A00000F01EF8BDE81040FFF7F4BF70B5054635
:1007B0000C460A2000E06D1C04F03FF935B12878A2
:1007C0000028F8D102E0641C04F037F914B1207855
:1007D0000028F8D1BDE870400A2004F02EB90000CE
:1007E00010B5022803D0410103D50DA112E000206D
:1007F00010BD010101D50FA10CE0C10001D511A16F
:1008000008E0810001D512A104E0400001D513A148
:1008100000E0002115A0FFF7C9FF012010BD000076
:10082000496E76616C6964204F7065726174696F9E
:100830006E000000446976696465204279205A653B
:10084000726F00004F766572666C6F770000000073
:10085000556E646572666C6F77000000496E65784E
:1008600061637420526573756C7400005349474688
:1008700050453A2041726974686D657469632065FA
:100880007863657074696F6E3A200000F0B5234A92
:100890004FF0FA0C10EE107A82F800C04FF0FB0C0B
:1008A00082F801C090701E4810EE906A11EE105A46
:1008B000C078D070080A10715171FC209071FD2031
:1008C000D0711772380A5072380C9072380ED0728C
:1008D0001673300A5073300C9073300ED073157449
:1008E000280A5074280C907411EE904A280ED07487
:1008F0001475200A5075200C907512EE103A200ED7
:10090000D0751376180A5076180C9076180ED0769B
:10091000FE201077FF205077F0BD0000A07500206A
:10092000340100200021124A08465054491C112964
:10093000FBDB0F4A00211E3A5054491C1329FBDBF4
:100940000B4A00219FED0B0A12F11E0202EB8103FC
:10095000491C83ED000A0529F8DB07490870487037
:1009600088808870C88081ED020A81ED030A704793
:10097000BE75002000000000340100202DED028B28
:10098000FFF7D0FF404C414FDFF80481414EDFF8C4
:100990000891DFF808A1DFF808B1424D9FED428AC7
:1009A000424805F0CBFF3878012803D088B10228EF
:1009B00028D04EE094ED040AD8ED000A30EE202A4B
:1009C000D4ED030A96ED000A70EE801A94ED020A47
:1009D00031E036480068407E012805D094EC050AD5
:1009E000B5F90410687832E094ED030AD6ED000AF8
:1009F00094ED042AB5F9041070EE201A94EC030A61
:100A0000687824E029480068407E002828488169E9
:100A100000EE101A28D0D8ED000A4169006930EEC6
:100A2000200AD6ED000A30EE082A00EE101A70EE09
:100A3000201A00EE100AD9ED000A30EE201ADAED85
:100A4000000A9BED000A00BFB5F904106878FFF7B3
:100A50001DFF4FF4FA731E221649174802F026F9BB
:100A6000022006F0F1F89BE7416930EE082A01EE1A
:100A7000901A016901EE101AC168806800EE901AA0
:100A800000EE100AE0E700001077002024010020AB
:100A9000700100206C010020680100207C01002012
:100AA0007801002034010020C3F548407471002013
:100AB00060750020A0750020D8090020FEE7000026
:100AC000014800F07CBA000028080020014800F02E
:100AD00076BA00005008002038B50E4C4FF400756F
:100AE00025600025A560E560082525610A4C050AFA
:100AF00025706070080AA070E170100A20716271A0
:100B0000180AA071E3716B4622460249034800F0BF
:100B1000ECF838BD5C710020090100202808002095
:100B20002E4910B52C4A0B78D0545B1CD8B20870F3
:100B300014780023552C4DD10B284CD350785038C5
:100B4000092847D2DFE800F0050D151D252D353B9E
:100B5000410052F8020FC1F802005068C1F80600C7
:100B600038E052F8020FC1F80A005068C1F80E00D0
:100B700030E052F8020FC1F812005068C1F81600B8
:100B800028E052F8020FC1F81A005068C1F81E00A0
:100B900020E052F8020FC1F822005068C1F8260088
:100BA00018E052F8020FC1F82A005068C1F82E0070
:100BB00010E052F8020F4863506888630AE052F868
:100BC000020FC8635068086404E052F8020F4864DA
:100BD000506888640B7010BD886F0020B000002042
:100BE000014800F0C3BC00008C0B0020014800F05D
:100BF000BDBC0000EC0B0020014800F0B7BC0000B9
:100C00004C0C0020014800F0B1BC00002C0B00206F
:100C1000014800F0ABBC0000AC0C002001681823B8
:100C2000CAB2103AB2FBF3F2054B6FF30901032A83
:100C30009B5CC36500D9091D8165084670470000AB
:100C4000C0A2000810B5014600208B698A6A4FF0E7
:100C5000C07453B1B3F5005F15D072B1012A0CD046
:100C6000022A0AD0032A09D104E01AB1012A06D0C7
:100C7000022A03D1C96AC90100D5012010BDC96A81
:100C8000A142FAD010BD002AF7D0012AF2D0022AE0
:100C9000F3D0032AF3D010BD30B50468256825F4DD
:100CA00080252560046863608368402B036803D057
:100CB00099600068C26030BD9A600068C16030BD54
:100CC000704772B6FEE790F82020012A07D0022A6A
:100CD00005D0416A41F480214162012070470068DB
:100CE00042690A43426100207047F0B590F82050F5
:100CF0000468A468012D05D0022D03D0416A41F497
:100D000080215DE014F0406F01D1E50055D5C4F3BA
:100D10000164022C03D9416A41F4000150E001252D
:100D2000A5401D608D684FF4C0739DB1CE683543FA
:100D30004E6845EAC605066803EB0417F5514FF403
:100D4000C275076805EB04150E697E51097D0129FE
:100D500005D009E00E88CD6845EA4655EBE7016805
:100D60004E5946F480764E511179D579567941EA3B
:100D7000056195792D0445EA062529434FF4C67689
:100D8000056806EB0416A9511178D57841EA05618A
:100D9000957852782D0445EA022211434FF4C47528
:100DA000026805EB04155151006803EB0411425829
:100DB00042F0010242500020F0BD416A41F40011AE
:100DC00041620120F0BD000010B590F82020012AFA
:100DD00007D0022A05D0416A41F4802141620120F6
:100DE00010BD3B48D0F8002242F00102C0F80022BA
:100DF000D0F8002222F47C52C0F80022D0F8002261
:100E00004B6A42EA0322C0F800220A7D02F01F0367
:100E100001229A40D0F81C329343C0F81C32CB69AF
:100E2000B3B9D0F80C329343C0F80C328C894B68BC
:100E300064F31F434C6900EBC404C4F840320C89CE
:100E40000B6864F31F434C6900EBC404C4F84432DC
:100E5000CB69012B16D1D0F80C321343C0F80C32F9
:100E60000C884B6864F31F434C6900EBC404C4F85E
:100E700040320C89CB6864F31F434C6900EBC40417
:100E8000C4F844328B69002BD0F804320ED01343DF
:100E9000C0F804320B69002BD0F8143208D0134389
:100EA000C0F81432096A012904D008E09343EFE73F
:100EB0009343F5E7D0F81C121143C0F81C12D0F888
:100EC000001221F00101C0F80012002010BD000046
:100ED00000640040704730B590F82040012C05D0E8
:100EE000022C03D0416A41F480215DE004680029AE
:100EF00055D02469A40754D04FF4D874056804EB86
:100F000001142D5915F00405956005682D594ED032
:100F1000ED08556005682C5904F00204D4604FF4C4
:100F2000DA74056804EB01142D5905F00F051561FD
:100F300005682D59C5F30725956105682C59240CC2
:100F400054614FF4DC72046802EB0112A4581C7067
:100F50000468A458240A5C700468A458240C9C708B
:100F60000468A258120EDA704FF4DE72046802EBC5
:100F70000112A4581C710468A458240A5C71046806
:100F8000A458240C9C710468A258120EDA710068EF
:100F900081B1016941F020010161002030BDE468A8
:100FA000A8E7416A41F400114162012030BD6D0D96
:100FB0001560AFE7C16841F02001C160EDE72DE9A0
:100FC000F05F0546006800244669D0F80490876801
:100FD000D0F80CB0D0F810A0D0F81880F10748D0A5
:100FE000F90714D001218160B80703D5284600F025
:100FF0005CFA0CE0780702D54FF4006407E038078C
:1010000002D54FF4805402E0284600F04DFAF8056E
:1010100016D529684FF480708860B80503D5284636
:1010200000F045FA0CE0780502D544F4005407E0DE
:10103000380502D544F4804402E0284600F036FA30
:10104000F80316D529684FF480308860B80303D5BB
:10105000284600F02EFA0CE0780302D544F4004450
:1010600007E0380302D544F4803402E0284600F05B
:101070001FFA300707D55FEACB6004D52968102036
:1010800044F40074C86070074FF0080707D55FEAA2
:101090000B7004D52868C760284600F099F9B0079E
:1010A00006D52868C068800702D0284600F092F96B
:1010B000700607D55FEACA6004D52968102044F499
:1010C00080640861B00607D55FEA0A7004D5286815
:1010D0000761284600F0B8F9F00606D528680069CF
:1010E000800702D0284600F0B0F9B00308D55FEAC7
:1010F000C96005D5296810204860284600F0A6F987
:10110000F00307D55FEA097004D5286847602846D0
:1011100000F0D0F9300446D55FEA497040D5F005BB
:1011200004D55FEAC87001D044F00104B00504D5CD
:101130005FEA887001D544F00204700504D55FEAC7
:10114000487001D544F00404300529D518F0700F1B
:1011500026D008F07000402815D006DC102809D0F1
:1011600020280AD0302816D10AE050280ED0602856
:1011700011D10EE044F008040DE044F010040AE040
:1011800044F0200407E044F0400404E044F080040C
:1011900001E044F480742868816921F07001816164
:1011A000296804204860002C05D0686A20436862E2
:1011B0002846FFF78FFEBDE8F09F70B5040003D00E
:1011C00094F8200010B104E0012070BD204600F02A
:1011D00081F82068016841F00101016000F07AFCAB
:1011E0000546052604E000F075FC401B0A2811D8CE
:1011F00020684068C007F6D02068016821F002012D
:10120000016000F067FC05460BE000F063FC401B4A
:101210000A2806D9606A40F40030606284F82060D1
:10122000D2E7206840688007EFD4207E012820683C
:1012300001683DD021F080010160607E01282068B6
:10124000016838D021F040010160A07E01282068AB
:10125000016833D021F020010160E07E0128206880
:1012600001682ED041F010010160207F0128206824
:10127000016829D021F008010160607F0128206801
:10128000016824D021F004010160D4E9020108437F
:10129000D4E90412114308436168491E08432168D8
:1012A000C86100206062012084F82000002070BD29
:1012B00041F08001C0E741F04001C5E741F0200165
:1012C000CAE721F01001CFE741F00801D4E741F06F
:1012D0000401D9E7F0B587B0044614216846FFF74A
:1012E000D4F9364B3648DFF8D0E01968D4F800C09E
:1012F000334A03250226092710300024491CF445EF
:1013000022D11960012907D1016841F00071016003
:10131000006800F000700590106840F00800106050
:101320001068CDE9005600F00800CDE90470694668
:101330002448CDE9024500F0ADFA00220521142031
:1013400000F004FC142033E0DFF87CE0F44531D1F8
:10135000D0F800C04CF0806CC0F800C0D0F800C0DD
:1013600001290CF0806CCDF814C0196007D1016818
:1013700041F000710160006800F000700590106895
:1013800040F002001060106802AB00F0020005900F
:101390004FF44050CDE9000683E8B00069460B48A1
:1013A00000F078FA00220521402000F0CFFB402019
:1013B00000F0BEFB07B0F0BD006400401C00002040
:1013C00030380240000C0240006800400004024037
:1013D0007047000010B58AB0044601AB03AA002193
:1013E000FFF779FD1548844226D10398A0F50071D6
:1013F000013905D0012903D0022901D003291BD1CD
:101400000F49401EC0B208700E4900EB800201EB8C
:10141000420031F812300381BDF804305BBA21F884
:101420001230BDF8061049BA4180BDF8081049BA1B
:1014300081809DF80A1081710AB010BD2808002033
:1014400000010020F47000207047704770470000D2
:1014500070B5044690F82000012804D0606A40F47A
:101460000020606218E0022084F8200020680168F3
:1014700021F00101016000F02DFB05460EE000BFE8
:1014800000F028FB401B0A2808D9606A40F40030AD
:101490006062052084F82000012070BD206840684B
:1014A000C007EDD1606270BD7047704770477047EC
:1014B0007047704770472DE9F0410446876D00F092
:1014C00009FB064694F835000025022806D0802046
:1014D000606584F834500120BDE8F081206801681F
:1014E00021F0160101602068416921F0800141610D
:1014F000206C08B9A06C20B12068016821F00801B7
:1015000001602068016821F0010101600CE000F039
:10151000E1FA801B052807D920206065032084F8A4
:10152000350084F83450D7E720680068C007EED152
:1015300094F85C103F208840B860012084F83500A2
:1015400084F834500020C7E790F83510022903D002
:101550008021416501207047052180F83510006821
:10156000016821F001010160002070472DE9F84376
:1015700004464FF00009CDF8009063484FF416512F
:10158000A56D0068B0FBF1F72E6894F85C10082098
:1015900000FA01F131420FD021680A6852070BD5D9
:1015A0000A6822F004020A6094F85C108840A8607F
:1015B000606D40F00100606594F85C104FF0010828
:1015C00008FA01F0304208D021684969090604D5BB
:1015D000A860606D40F00200606594F85C10042023
:1015E0008840304208D021680968890704D5A8607E
:1015F000606D40F00400606594F85C101020884035
:10160000304218D021680968090714D5A8602068FD
:101610000168490304D50068000308D5A16C07E000
:101620000168C90503D4016821F008010160216C3B
:1016300009B12046884794F85C1020208840304249
:1016400031D021680968C9062DD5A86094F8350005
:1016500005282068016806D0490347D500680003C3
:101660001DD4616C1CE021F0160101602068416905
:1016700021F080014161206C08B9A06C20B1206884
:10168000016821F00801016094F85C103F20884057
:10169000A86084F8358084F83490216D1FE0E16BF8
:1016A00009B120468847606D00282BD0606DC007C7
:1016B00014D0052084F835002068016821F001016C
:1016C00001600098401C0090B84203D82068006870
:1016D000C007F6D184F8358084F83490E16C002995
:1016E00010D001B02046BDE8F04308470168C905A5
:1016F000D5D4016821F01001016084F8358084F8A8
:101700003490CCE7BDE8F8832C0000202DE9F041AF
:10171000044600F0DFF906465CB1022084F835008B
:10172000002584F834502068016821F0010101602F
:101730000DE00120BDE8F08100F0CCF9801B052808
:1017400005D920206065032084F83500F2E7206881
:101750000068C007F0D12268116820480140D4E930
:1017600001031843D4E9033633431843636918432C
:10177000A3691843E3691843236A18430843616A5D
:10178000042903D1D4E90B131943084310602068DE
:101790004069666A20F0070130460E43012704289D
:1017A0000CD1A06A0643E06A40B12046FFF74AFA2E
:1017B00020B14020606584F83570BAE72068466142
:1017C0002046FFF72BFA94F85C203F21914081607E
:1017D000656584F835700020ACE700003F8010F0AC
:1017E00070B5044690F83400002501280CD0012083
:1017F00084F8340094F835600020012E06D084F877
:1018000034000225284670BD022070BD022684F8EF
:10181000356060652046FFF73FFA2068016841F0B7
:1018200001010160EEE72DE9F0410446866D90F874
:101830003400002501280DD0012084F8340094F8EC
:1018400035700020012F07D084F834000225284687
:10185000BDE8F0810220FBE7022784F8357060655F
:101860002046FFF719FA94F85C103F208840B060DA
:101870002068016841F016010160206C20B12068E9
:10188000016841F0080101602068016841F0010130
:101890000160DCE72DE9F84FDFF8F8A10022012410
:1018A0000AF1040B03254FF00F090BF1040E00BFE2
:1018B0000B6804FA02F63340B34270D10F7907F097
:1018C0000307012F01D0022F16D187684FEA420883
:1018D00005FA08FC27EA0C07D1F80CC00CFA08FC42
:1018E0004CEA070CC0F808C04768B7430E79C6F346
:1018F000001696403E4346600E79F643B6070AD07E
:10190000C7684FEA420C05FA0CF6B7438E6806FA30
:101910000CF63E43C6600E7906F00306022E10D187
:10192000D60800EB8608D8F8206057074FEAD76C36
:1019300009FA0CF7BE430F6907FA0CF73743C8F8EA
:10194000207006684FEA420C05FA0CF7BE430F7987
:1019500007F0030707FA0CF7374307604E6816F4E1
:10196000403F1CD04C4E376847F48047376036689C
:1019700022F0030706F480460096484E07EB060C5B
:10198000DCF8086897073F0F09FA07F826EA080607
:10199000DFF80C81404503D14FF0000841E072E0D0
:1019A000DFF80081404502D14FF0010839E0DFF84F
:1019B000F880404502D14FF0020832E0DFF8EC80B9
:1019C000404502D14FF003082BE0DFF8E4804045AA
:1019D00002D14FF0040824E0DFF8D880404502D15E
:1019E0004FF005081DE0DFF8D080404502D14FF0F0
:1019F000060816E0DFF8C480404502D14FF0070822
:101A00000FE0DFF8BC80404502D14FF0080808E045
:101A1000DFF8B080404502D14FF0090801E04FF0F7
:101A20000A0808FA07F848EA0608CCF80888DAF83D
:101A300000605746D1F804C09E435FEACC3C00D515
:101A40001E433E60DBF800605F46D1F804C09E4351
:101A50005FEA8C3C00D51E433E60DEF800607746AE
:101A6000D1F804C09E435FEACC2C00D51E433E60F3
:101A7000084F0C373E68D1F804C09E435FEA8C2CB7
:101A800000D51E433E60521C102AFFF411AFBDE882
:101A9000F88F0000003C0140443802400030014013
:101AA000000002400004024000080240000C024016
:101AB000001002400014024000180240001C0240C6
:101AC00000200240002402400AB1816170470904ED
:101AD000FBE70000014880687047000020000020FC
:101AE000024881680278114481607047200000201C
:101AF00070B50D4D04464FF47A712878B1FBF0F0C3
:101B00000A490968B1FBF0F000F0E2FA48B9102C7C
:101B100007D200222146501E00F018F800206C6009
:101B200070BD012070BD0000200000202C000020AE
:101B3000002809DB00F01F020121914040098000CC
:101B400000F1E020C0F8001170470000F0B40E4B27
:101B50001B680C46C3F30223C3F10705042D00D90B
:101B60000425191D072901D2002300E0DB1E0126F0
:101B700006FA05F1491E214099409E40761E164006
:101B80003143F0BC02F04BBB0CED00E02DE9F04717
:101B90000E46050065D0DFF81481D8F80000F7B2D2
:101BA00000F00F00B04207D288F80070D8F80000AB
:101BB00000F00F00B04254D128683D4C810712D587
:101BC000400703D5206840F4E050206028780007E3
:101BD00003D5206840F4604020602068A96820F0A8
:101BE000F000084320602878C0072DD0304968688D
:101BF0000839012812D0022813D0032811D009680F
:101C0000890700292DDA216821F0030101432160B1
:101C1000FFF760FF814641F2883A0EE009688903C8
:101C2000EFE709688901ECE7FFF754FFA0EB090132
:101C3000514502D90320BDE8F0872068696800F0AB
:101C40000C00B0EB810FEFD1D8F80010404601F046
:101C50000F01B14207D90770006800F00F00B042D1
:101C600001D00120E7E72878400705D52068E9681A
:101C700020F4E050084320602878000706D520684B
:101C8000296920F4604040EAC100206000F038F883
:101C90002168084AC1F30311515CC8400649086035
:101CA00006480068FFF724FF0020C4E7003C02401C
:101CB00008380240C8A200082C00002024000020A0
:101CC0000448054900680968044AC1F38221515C4F
:101CD000C84070472C00002008380240D8A20008F5
:101CE0000448054900680968044AC1F34231515C5F
:101CF000C84070472C00002008380240D8A20008D5
:101D0000154810B5006810F00C02144813D014499F
:101D1000042A0FD0082A0ED10F4C241F22682368F2
:101D200002F03F025B0207D52068C0F38810A0FBD9
:101D3000010106E0084610BD2168C1F38811A1FB2E
:101D400000010023FEF789FB2168C1F30141491C12
:101D50004900B0FBF1F010BD083802400024F40047
:101D6000001BB7002DE9F84F04006ED02078DFF893
:101D70004C93C007A9F104054AD009F10400016899
:101D8000C1F38101012908D00068C0F38100022855
:101D90000AD1D9F80000400206D52868800337D55B
:101DA00060680028E1D033E06068B0F5803F10D073
:101DB000B0F5A02F286810D020F480302860286863
:101DC00020F4802028606068A8B1FFF783FE0646F3
:101DD0000DE0286840F48030F4E740F4802028606B
:101DE000F7E700BFFFF776FE801B642873D82868EA
:101DF0008003F7D50CE0FFF76DFE064605E000BF57
:101E0000FFF768FE801B6428F0D828688003F7D4A9
:101E10002078DFF8AC8280074FF0000A3ED5A74853
:101E2000001D016811F00C0F08D00068C0F381009C
:101E300002280BD1D9F80000400207D42868800797
:101E400016D5E068012800D112E033E1E068B8B1AE
:101E50000120C8F80000FFF73DFE064605E000BF80
:101E6000FFF738FE801B0228C0D828688007F7D506
:101E70002868216920F0F80040EAC10028600DE0E0
:101E8000C8F800A0FFF726FE064604E0FFF722FE92
:101E9000801B02281FD828688007F7D42078000705
:101EA00022D5864F87486169703771B10121016081
:101EB000FFF710FE064604E0FFF70CFE801B022829
:101EC00009D838688007F7D50EE0C0F800A0FFF702
:101ED00001FE064605E082E0FFF7FCFD801B0228BC
:101EE0007DD838688007F7D42078400768D5DFF8B8
:101EF000CCB100270BF13C0BDBF80000C0000BD489
:101F0000DBF8001041F08051CBF80010DBF8000046
:101F1000012700F0805000906B4E3068C00510D44F
:101F2000306840F480703060FFF7D4FD009005E029
:101F3000FFF7D0FD0099401A022850D83068C0053C
:101F4000F6D55E4EA0686C3601280FD005283068A3
:101F500010D020F001003060306820F004003060C4
:101F6000A068B8B1FFF7B6FD00900FE0306840F010
:101F70000100F4E740F004003060F7E7FFF7AAFD46
:101F80000099411A41F28830814266D83068800752
:101F9000F4D50EE0FFF79EFD009007E0FFF79AFDF5
:101FA0000099411A41F28830814256D83068800742
:101FB000F4D42FB1DBF8001021F08051CBF80010E1
:101FC000A069C8B33D49091D0968C1F3810102290F
:101FD0004AD00228504607D0C8F8600000E03CE034
:101FE000FFF778FD04463BE04746C8F86000FFF77E
:101FF00071FD064605E000BFFFF76CFD801B02285F
:102000002BD828688001F7D4D4E907010843A16AD6
:102010002E4A490802EB0141626A41EA82110843F3
:1020200094F82C1040EA0161C9F8001001203866CC
:10203000FFF750FD044606E03EE000BFFFF74AFD13
:10204000001B022809D828688001F7D534E000BFBA
:10205000FFF740FD001B022802D90320BDE8F88FDE
:1020600028688001F4D427E00128F7D0D9F80000CF
:10207000E26900F4800191421CD1226A00F03F0124
:10208000914217D147F6C071626A0140B1EB821FDD
:1020900010D1A26A4FF0FF3300F4403103EB52023B
:1020A000B1EB024F06D194F82C1000F07060B0EB49
:1020B000016F01D00120D1E70020CFE704380240B2
:1020C00000004742800E4742007000400000FFFFC2
:1020D00010B5401EB0F1807F01D3012010BD4FF03C
:1020E000E02460610F21601702F099F80020A061E0
:1020F00007202061002010BD70B590F83C20012A17
:1021000032D0012480F83C40022280F83D20036850
:102110005A689D6822F070060A6832435A60134B71
:1021200002689A4214D0B2F1804F11D0104B9A42FB
:102130000ED0104B9A420BD00F4B9A4208D00F4B47
:102140009A4205D00E4B9A4202D00E4B9A4204D1CD
:10215000496825F080031943916080F83D400021D3
:1021600080F83C10084670BD022070BD00000140A0
:102170000004004000080040000C00400004014042
:10218000004001400018004010B5040003D094F84E
:102190003D0010B107E0012010BD002084F83C0094
:1021A000204600F01FF8022084F83D00211D206821
:1021B00001F08AFB012084F8460084F83E0084F890
:1021C0003F0084F8400084F8410084F8420084F81D
:1021D000430084F8440084F8450084F83D00002062
:1021E00010BD000008B501681148B1F1804F0BD057
:1021F000104A914210D1016841F004010160006869
:1022000000F00400009008BD016841F00101016088
:10221000006800F00100F5E7074A9142F3D1016838
:1022200041F040010160006800F04000EAE7000072
:1022300040380240000800400018004090F83D106F
:10224000012901D001207047022180F83D1000686B
:102250001149884214D0B0F1804F11D00F49884203
:102260000ED00F4988420BD00E49884208D00E4943
:10227000884205D00D49884202D00D49884204D1D8
:10228000816801F00701062903D0016841F00101CE
:102290000160002070470000000001400004004081
:1022A00000080040000C00400004014000400140D4
:1022B0000018004070B5044690F83C000025012845
:1022C00017D0012684F83C60022084F83D00206885
:1022D000826822F0770222F47F42826008685028E8
:1022E00038D00DDC20284FD005DC90B3102811D158
:1022F0004AE0022070BD302846D040280AD13BE099
:1023000060282FD070280DD0B0F5805F03D0B0F5D5
:10231000005F12D0012584F83D60002084F83C0065
:10232000284670BDCB68D1E90121206801F03DFB52
:102330002068816841F0770109E0CB68D1E901218B
:10234000206801F032FB2068816841F4804181609F
:10235000E1E719E0CA684968206801F0FBFB5021F9
:10236000206806E0CA684968206801F004FC602122
:10237000206801F024FBCEE7CA684968206801F0B4
:10238000E9FB40212068F4E7226801461046F0E7A7
:1023900070B586B0044614216846FEF776F92368C6
:1023A00000212148032402220125B3F1804F17D0D8
:1023B0001E4EB34224D1036843F008030360006853
:1023C00000F0080005904FF470400090CDE9012125
:1023D000CDE9031269461648FFF75CFA06B070BDF6
:1023E000036843F0010303600068009400F00100FB
:1023F0000590CDE90121CDE9031569460D48EBE7CC
:102400000D498B42EAD1016841F08001016000680A
:10241000694600F08000059040208DE825000920E5
:10242000CDE903400548D7E73038024000080040B6
:10243000000C02400000024000180040001C024056
:1024400070B5044690F83C0000260D4601280FD0D8
:10245000012084F83C006AB1042A1DD0082A2FD03C
:102460000C2A3FD00126002084F83C00304670BD85
:10247000022070BD206801F0ABFA2068816941F04C
:10248000080181612068816921F00401816120686F
:1024900081692A69114311E0206801F0C9FA2068B6
:1024A000816941F4006181612068816921F4806162
:1024B0008161206881692A6941EA02218161D2E74C
:1024C000206801F0EBFA2068C16941F00801C161A0
:1024D0002068C16921F00401C1612068C1692A69CD
:1024E000114311E0206801F00DFB2068C16941F43F
:1024F0000061C1612068C16921F48061C161206807
:10250000C1692A6941EA0221C161ACE710B5040042
:1025100003D094F83D0010B107E0012010BD002069
:1025200084F83C00204600F01EF8022084F83D00AC
:10253000211D206801F0C8F9012084F8460084F8C4
:102540003E0084F83F0084F8400084F8410084F89D
:10255000420084F8430084F8440084F8450084F87D
:102560003D00002010BD704710B50446022249B15D
:1025700004290ED0082913D094F84100012816D060
:10258000012010BD94F83E000128F9D184F83E20C6
:102590000FE094F83F000128F2D184F83F2008E0D2
:1025A00094F840000128EBD184F8402001E084F841
:1025B00041200122206801F0EBF916492068164AF3
:1025C000884201D0904203D1436C43F400434364FA
:1025D0002068884213D0B0F1804F10D00F49884254
:1025E0000DD00F4988420AD00E49884207D0904248
:1025F00005D00D49884202D00C49884204D1816837
:1026000001F00701062903D0016841F001010160D2
:10261000002010BD00000140000401400004004003
:1026200000080040000C004000400140001800403D
:1026300070477047F8B5016804460868CA684B6976
:1026400010F00F0F4FF0000559D003F0010602F40F
:102650009077374365D0C10705D0D10503D5216CEC
:1026600041F001012164410705D5D90703D0216C50
:1026700041F002012164810705D5D90703D0216CFF
:1026800041F004012164010707D502F02001314324
:1026900003D0216C41F008012164216C00293AD05B
:1026A000800604D5900602D5204601F0E7FB20689D
:1026B0004069216CC0F38010090700D460B3204644
:1026C00001F0A7FB20684069400621D5206814303E
:1026D00050E8001F21F0400140E80012002AF5D127
:1026E000A06BA8B16C490165A06BFEF72DFF002817
:1026F00011D0A06B016D01B0BDE8F0400847830622
:102700000FD593060DD52046BDE8F84001F0B6BBC5
:102710002046FFF78EFFF8BD2046FFF78AFF2564AD
:10272000F8BD266B2023012E79D1C60677D5D606B3
:1027300075D50868486800904869400640D5A16B87
:10274000086840680004000CEAD0A28D8242E7D9F4
:10275000E085C869B0F5807F2DD020680C3050E846
:10276000001F21F4807140E80012002AF5D1206892
:10277000143050E8001F21F0010140E80012002A47
:10278000F5D12068143050E8001F21F0400140E8E6
:102790000012002AF5D184F83E30256320680C3001
:1027A00050E8001F21F0100140E80012002AF5D186
:1027B000A06BFEF780FEA08DE18D401A81B229E06A
:1027C000A08DE18D401A81B2E08D0028A8D00029AB
:1027D000A6D020680C3050E8002F22F4907240E818
:1027E0000026002EF5D12068143050E8002F22F08A
:1027F000010240E80026002EF5D184F83E30256322
:1028000020680C3050E8002F22F0100240E800232E
:10281000002BF5D12046FFF70BFFF8BDFFE70506BB
:102820002BD5150629D594F83D002128F5D1A068AF
:10283000B0F5805F01D12069B0B1206A411C2162EE
:10284000216800784860E08C401E0004000CE084A1
:10285000E3D12068C16821F08001C1602068C168AF
:1028600041F04001C160D8E7206A0088C0F3080049
:102870004860206A801C2062E5E74006CDD55006FE
:10288000CBD5CA68204622F04002CA6084F83D30A9
:1028900000F0ACFAC1E70000D13C000870B50400BC
:1028A00004D094F83D00002510B106E0012070BD71
:1028B00084F83C50204600F023F8242084F83D00A2
:1028C0002068C16821F40051C160204601F036FB48
:1028D0002068016921F4904101612068416921F07B
:1028E0002A0141612068C16841F40051C16025643A
:1028F000202084F83D0084F83E00002070BD0000D8
:102900002DE9F04F87B0044614216846FDF7BDFE5F
:10291000CA48C94E2368C94910380327C84A002548
:102920004FF002084FF00809B34215D10B6843F489
:1029300000230B60096801F400210591016841F052
:10294000040101600068694600F004000590B802C7
:10295000CDE90008104629E0BA4EB3422ED10B68EB
:1029600043F480130B60096801F48011059101683C
:1029700041F004010160016801F004010591016862
:1029800041F008010160006802AB00F0080005900A
:10299000B014CDE9000883E8A00269461046FEF7AE
:1029A00079FF0420CDE90008A748694602AB83E817
:1029B000A002FEF76FFF07B0BDE8F08FA34EA44A58
:1029C000B34221D10B6843F080430B60096801F0EA
:1029D00080410591016841F010010160006802AB7F
:1029E00000F0100005904FF4C070CDE9000883E8B6
:1029F000A00269461046FEF74DFF00220521522035
:102A0000FFF7A4F8522021E0924EB34221D10B6887
:102A100043F000430B60096801F000410591016833
:102A200041F0100101600068CDE9007800F010006D
:102A3000CDE90490CDE9025769461046FEF72AFF1A
:102A4000002205215320FFF781F85320FFF770F88B
:102A5000B1E7814ADFF8E4C116150CF1040C4FF020
:102A6000070A4FF0006B93423AD1DCF8002042F0A5
:102A70001002CCF80020DCF8001001F010010591E4
:102A8000016841F002010160006802AA00F0020042
:102A90000590C020CDE9000882E8A00469466F488F
:102AA000FEF7F8FE6F4F6E483860C7E901B5C7E919
:102AB000035680157D61C7E906504FF44030C7E9E1
:102AC00008053846FEF722FE08B1FEF7FAF8A763BC
:102AD000002205212520BC63FFF738F82520B5E743
:102AE000614A93424FD10A6842F400320A60096891
:102AF00001F400310591016841F0080101600068AE
:102B000002AA00F0080005906020CDE9000882E8E4
:102B1000A00469464C48FEF7BDFE524F534860374B
:102B20004FF440393860C7E901B5C7E903567D6104
:102B3000BD61C7E90759D84638467D62FEF7E6FD14
:102B400008B1FEF7BEF8A763BC63464F4748C037DD
:102B50001830E7E80208402061C7424847F8145996
:102B6000C030BD61C7E907597D62FEF7CFFD08B1EE
:102B7000FEF7A7F86763002205212620BC63FEF755
:102B8000E5FF262062E73A498B427FF461AFDCF82B
:102B9000002042F02002CCF80020DCF8001001F008
:102BA00020010591016841F040010160006802AA1E
:102BB00000F0400005904FF48440CDE9000882E821
:102BC000A00269462B48FEF765FE25482A4F1838B3
:102BD0004FF020683860C7E90185C7E903567D6179
:102BE0004FF40030BD61C7E9075038467D62FEF7FB
:102BF0008DFD08B1FEF765F8A763BC631E4F18484A
:102C000060376030E7E80208402061C71A4847F89B
:102C100014596030BD61FD613D627D62FEF776FD55
:102C200008B1FEF74EF86763002205214720BC6318
:102C3000FEF78CFF472009E7004C00404038024077
:102C40000008024000500040000C024000780040A4
:102C500000100240007C00400010014000040240CF
:102C6000406402402C0B0020004400408860024079
:102C700000140140001802404C0C002090F83E3037
:102C8000202B0ED159B152B190F83C30012B08D015
:102C9000012380F83C300023036301F0D5B9012003
:102CA0007047022070477047704700002DE9F843D5
:102CB000044690F83D001F4616460D4620284CD18C
:102CC000C5B1BEB194F83C00012846D0012084F87B
:102CD0003C004FF00008C4F84080212084F83D00FB
:102CE000FEF7F8FEA6848146E684A068B0F5805F12
:102CF00003D004E00120BDE8F883206928B12E4606
:102D00005FF0000584F83C800EE00026FAE78021A1
:102D1000204601F0E1F9A0B9AEB116F8010B216827
:102D20004860E08C401EE084E08C4B464FF000028F
:102D300000970028EBD14FF04001204601F0CCF97C
:102D400030B10320D7E735F8020BC0F30800E6E7FF
:102D5000202084F83D000020CDE70220CBE70000D2
:102D600070B5044690F83D00202836D191B38AB35F
:102D700094F83C00012830D0012084F83C00216206
:102D8000A284E28400252564212084F83D00636B41
:102D90001348D863636B13481864636B1248D86494
:102DA000606B134605652668606B321DFEF73BFDC0
:102DB00021686FF04000086084F83C5020681430AF
:102DC00050E8001F41F0800140E80012002AF5D1D0
:102DD000002070BDFFE70120FBE70220F9E70000BB
:102DE000C73D0008093E0008E13C000870477047F5
:102DF000FEE700000F4810B50D4901600321416056
:102E000000214FF410228160C0E903124FF4001238
:102E10004261017641768176C17601774177FEF78E
:102E2000CCF9002803D0BDE81040FDF74ABF10BD23
:102E300000640040280800200F4810B50D490160CB
:102E40000321416000214FF410228160C0E9031288
:102E50004FF400124261017641768176C1760177A6
:102E60004177FEF7AAF9002803D0BDE81040FDF72E
:102E700028BF10BD00680040500800201D4808B55C
:102E8000016841F480010160016801F48001009152
:102E9000016841F4001101600068002200F4001094
:102EA000009005211020FEF751FE1020FEF740FE95
:102EB000002205211120FEF749FE1120FEF738FE01
:102EC000002205213920FEF741FE3920FEF730FEB1
:102ED000002205213A20FEF739FE3A20FEF728FEAF
:102EE000002205214520FEF731FEBDE808404520BF
:102EF000FEF71EBE3038024010B5B2B01C22274982
:102F00006846FDF766FB0021684603F0BCFE244CD2
:102F100022491C2260611C3107A8FDF75AFB0021E1
:102F200007A803F0B0FE1D4920601C2238310EA80E
:102F3000FDF74FFB00210EA803F0A5FE17496060C6
:102F40001C22543115A8FDF744FB002115A803F0FD
:102F50009AFE1249A0601C2270311CA8FDF739FBB3
:102F600000211CA803F08FFE0C49E0601C228C316C
:102F700023A8FDF72EFB002123A803F084FE0749B8
:102F800020611C22A8312AA8FDF723FB00212AA8D2
:102F900003F079FEA06132B010BD0000FCA1000872
:102FA000000000202DE9F04387B014216846FDF7AA
:102FB0006CFB4D480024016841F01001016001687C
:102FC00001F010010591016841F0400101600168C4
:102FD00001F040010591016841F0040101600168C0
:102FE00001F004010591016841F0010101600168EF
:102FF00001F001010591016841F0020101600168E1
:1030000001F002010591016841F0080101600168C9
:1030100001F008010591016841F4807101600168C7
:1030200001F480710591016841F02001016001689F
:1030300001F020010591016841F080010160006804
:103040002A4E00F0800041F27005059000222946CA
:103050003046FEF739FD264F002203213846FEF7A1
:1030600033FDDFF8908000220C214046FEF72CFD56
:10307000DFF88490002201214846FEF725FD0095E7
:103080000125CDE90154694630460394FEF702FC60
:10309000202002268DE8510069461848FEF7FAFB09
:1030A00003200090CDE90154694638460394FEF7A9
:1030B000F1FB0C270097CDE9015469464046039483
:1030C000FEF7E8FB0097CDE9014669460C48FEF79C
:1030D000E1FB0095CDE90154694648460394FEF7AB
:1030E000D9FB07B0BDE8F083303802400010024041
:1030F0000014024000080240000402400020024088
:103100000000024010B58CB0002407940894099484
:103110001C2168460A94FDF7B8FA19481749C0E916
:10312000001445F20721C0E9024104618461FFF700
:103130002BF808B1FDF7C5FD4FF48050079007A9A3
:103140000F48FFF7B7F808B1FDF7BBFD0C48FFF7D4
:10315000DDF908B1FDF7B5FD6020CDE9000402946A
:103160000022694606480494FFF76AF908B1FDF7A2
:10317000A8FD0348FFF70CF90CB010BD0018004083
:103180000809002010B58EB0002407940894099413
:103190000A940B941C2168460C94FDF776FA21489A
:1031A0004FF08041C0E90014611EC0E90241046192
:1031B0008461FEF7E9FF08B1FDF783FD4FF480500D
:1031C000079007A91748FFF775F808B1FDF779FDD3
:1031D0001448FFF79BF908B1FDF773FD0B940BA999
:1031E00010480C94FEF788FF08B1FDF76AFD6020D7
:1031F000CDE900040294002269460A480494FFF7CE
:103200001FF908B1FDF75DFD042269460548FFF787
:1032100017F908B1FDF755FD0248FFF7B9F80EB0F0
:1032200010BD00007808002010B58EB0002407946F
:10323000089409940A940B941C2168460C94FDF799
:1032400024FA2A48284901605321C0E9011444F6B0
:103250001F61C0E903148461FEF796FF08B1FDF712
:1032600030FD4FF48050079007A92048FFF722F85F
:1032700008B1FDF726FD1D48FFF748F908B1FDF735
:1032800020FD0B940BA919480C94FEF735FF08B1EB
:10329000FDF717FD6020CDE9000402940022694685
:1032A00012480494FFF7CCF808B1FDF70AFD042298
:1032B00069460E48FFF7C4F808B1FDF702FD082281
:1032C00069460A48FFF7BCF808B1FDF7FAFC0C2282
:1032D00069460648FFF7B4F808B1FDF7F2FC034869
:1032E000FFF756F80EB010BD00080040C0080020DF
:1032F0000C4810B50A4901604FF4E13141600021EA
:1033000081600C22C160C0E904128161C161FFF7D4
:10331000C5FA002803D0BDE81040FDF7D2BC10BDAF
:10332000004C0040500900200C4810B50A490160CB
:103330004FF4E1314160002181600C22C160C0E99D
:1033400004128161C161FFF7A9FA002803D0BDE82A
:103350001040FDF7B6BC10BD00500040940900209D
:103360000C4810B50A4901604FF4E1314160002179
:1033700081600C22C160C0E904128161C161FFF764
:103380008DFA002803D0BDE81040FDF79ABC10BDAF
:1033900000780040D80900200C4810B50A490160A7
:1033A0004FF4E1314160002181600C22C160C0E92D
:1033B00004128161C161FFF771FA002803D0BDE8F2
:1033C0001040FDF77EBC10BD007C00401C0A0020B0
:1033D0000D4810B50B4901600C49416000214FF4C4
:1033E00080628160C0E903120422C0E90521C16145
:1033F000FFF754FA002803D0BDE81040FDF761BC88
:1034000010BD000000100140600A0020A0860100ED
:103410000C4810B50A4901604FF4E13141600021C8
:1034200081600C22C160C0E904128161C161FFF7B3
:1034300035FA002803D0BDE81040FDF742BC10BDAE
:1034400000440040A40A00200C4810B50A4901605D
:103450000B494160002181600C22C160C0E9041267
:103460008161C161FFF71AFA002803D0BDE810405E
:10347000FDF727BC10BD000000140140E80A002041
:10348000003E4900FEE7FEE7A0B1D0ED101AC0ED06
:10349000111A90ED0F1A80ED101AC0ED060A80ED9A
:1034A000070A30EEC00A80ED0F0A017829B1012920
:1034B0003BD078E09FED3D0A7047D0ED010A60EE09
:1034C000801AC0ED091AD0ED0A0A90ED022A42EEE8
:1034D000000A30EE410AC0ED0A0A90ED0D2A80ED97
:1034E0000E2A90ED0C2A80ED0D2A80ED0C0A90ED4D
:1034F000031A21EE001A80ED0B1A90ED050AF4EE86
:10350000C00AF1EE10FA09DCB1EE400AF4EEC00A8E
:10351000F1EE10FA02D390ED0A0A01E080ED0A0AFA
:1035200031EE800A30EE010A2BE070EE410A90ED98
:10353000012A20EE822A80ED092AD0ED020A60EEEF
:10354000800AC0ED0A0AD0ED0D2A72EE200AC0ED05
:103550000E2AD0ED0C2AC0ED0D2AF0EE002A01EE65
:10356000620A30EE210A80ED0C0A90ED031A21EE7A
:10357000000A80ED0B0A30EE800AD0ED080A30EE2A
:10358000200A80ED080AD0ED040AB4EEE00AF1EE5C
:1035900010FA06DCF1EE600AB4EEE00AF1EE10FA81
:1035A00001D2C0ED080A90ED080A70470000000043
:1035B000002828D0002A26D0017092ED001A80ED54
:1035C000011A92ED011A80ED021A92ED021A80EDB5
:1035D000031A80ED040A9FED0C0AC0ED050A80ED88
:1035E0000E0A80ED0D0A80ED0C0A80ED080A80EDD0
:1035F0000B0A80ED0A0A80ED090A80ED110A80EDC0
:10360000100A80ED0F0A70470000000030B5144B1F
:103610001C68656945F0400565611B68DC6844F01D
:103620001004DC600F4B1C68256825F0010525603F
:103630001C682568ED07F7D11D680B4CAC601C6851
:10364000E06018680161186842601868016841F418
:10365000802101601868016841F00101016030BDFE
:10366000600A00202C0B002004100140B5EEC00AB7
:10367000F1EE10FA02DDB7EE000A7047B5EEC00AAF
:10368000F1EE10FA02D2BFEE000A70479FED010A78
:103690007047000000000000012003F0D5FAFBE7AE
:1036A00010B5FEF71DFA04F0BBFF012803D0BDE8FA
:1036B000104004F0DFBC10BD30B593B03021684637
:1036C000FCF7E3FF14210CA8FCF7DFFF1D480025E1
:1036D000016841F080510160006800F08050119055
:1036E0001948016841F4404101600068022400F477
:1036F0004040119001200090000401908001CDE92C
:10370000064006200890A820CDE9090404200B906B
:103710006846FEF727FB08B172B6FEE70CA90F203A
:1037200081E831004FF4A0500F904FF4805010907A
:1037300005210CA8FEF72AFA002801D072B6FEE790
:1037400013B030BD403802400070004002480168AC
:1037500041F470010160704788ED00E010B5044647
:103760002DED068BD0ED070A90ED001A70EEC00A21
:1037700090ED020A20EE010A80ED010A90ED031A95
:1037800021EE001A61EE008A90ED061A20EE019AF1
:1037900070EE899AB0EEE90A10EE100A06F038FBD6
:1037A0009FED3E1B53EC112B05F064FD41EC1A0B11
:1037B00018EE900A06F02CFB53EC1A2B05F068FA71
:1037C00041EC1A0B18EE900A06F022FB53EC1A2B70
:1037D00005F050FD41EC100B01F04AF851EC100BD4
:1037E00005F0F4F800EE900AB0EE690AFFF73EFF2C
:1037F00070EEE80AB0EE498A20EE200AF6EE000AE2
:1038000000EE208AF0EE680AB0EE690A03F06EF866
:1038100079EE290A60EE202AF0EE680AB0EE690A15
:1038200003F064F8B7EE003AD4ED030A33EE400A31
:1038300048EE002A82EEA80A20EEC02AF0EE680ABE
:10384000B0EE620A03F052F822EE002AB0EE620AED
:10385000FFF70CFFD4ED030A60EE203AF0EE680AA1
:10386000B0EE620A03F042F833EE400A03EEC02ADB
:1038700084ED042A84ED052A94ED060AD4ED000AAD
:1038800000EE820A84ED060A94ED071A00EE801A13
:1038900084ED071ABDEC068B10BD0000000000008F
:1038A0000000204080ED030A80ED001A9FED050A1C
:1038B000C0ED020A80ED050A80ED060AC0ED071A88
:1038C0007047000000000000F0B50268254C264D4E
:1038D000264E274F274B4FF0804CA04209D0604521
:1038E00007D0A84205D0B04203D0B84201D09842D8
:1038F00004D122F0700E4A6842EA0E02A0421BD0A8
:10390000604519D0A84217D0B04215D0B84213D0A4
:10391000984211D0184DA8420ED0184DA8420BD095
:10392000174DA84208D0174DA84205D0164DA84201
:1039300002D0164DA84203D122F44075CA682A432A
:103940004D6922F080022A4302608A68C2620A68D6
:103950008262A04201D0984201D10969016301212C
:103960004161F0BD0000014000040040000800403B
:10397000000C0040000401400040014000440140B0
:103980000048014000180040001C0040002000409A
:1039900010B501F01F030121046A99408C430462B1
:1039A000016A9A401143016210BD10B5846842EA71
:1039B000032224F47F440A432243826010BD8268BC
:1039C00022F070020A4342F0070181607047000054
:1039D000F0B5026A22F001020262036A4268846959
:1039E000124E24F073050C682C4323F002058B68FB
:1039F0002B430D4DA84201D0B04205D123F008075A
:103A0000CB683B4323F00403A84201D0B04205D168
:103A10004D6922F4407215438A692A4342608461E9
:103A2000496841630362F0BD0000014000040140A9
:103A3000F0B5026A22F010020262026A43688469E9
:103A40000D6824F4E64444EA05248D6822F020023F
:103A500042EA05120F4D104EA84201D0B04206D1E5
:103A6000CF6822F0800242EA071222F04002A84208
:103A700001D0B04207D14D6923F4406343EA850386
:103A80008D6943EA8503436084614968816302620A
:103A9000F0BD00000000014000040140F0B5026AE2
:103AA00022F480720262026A4368C46922F40072DE
:103AB00024F073050C68124E2C438D6842EA0522EF
:103AC0000E4DA84201D0B04206D1CF6822F4006268
:103AD00042EA072222F48062A84201D0B04207D114
:103AE0004D6923F4405343EA05138D6943EA0513F6
:103AF0004360C4614968C1630262F0BD00000140D7
:103B00000004014030B5026A22F480520262046A65
:103B10004268C3690D6823F4E64343EA05238D68D0
:103B200024F4005444EA0534084DA84202D0084D5C
:103B3000A84204D14D6922F4804242EA85124260D3
:103B4000C36149680164046230BD000000000140A7
:103B50000004014010B5036A046A24F00104046201
:103B6000846924F0F00444EA021423F00A020A43B0
:103B70008461026210BD10B5036A23F01003036272
:103B80008369046A23F4704343EA023224F0A003F9
:103B900043EA01118261016210BD00003D4818B482
:103BA00000680168890672D540688DF800009DF8AC
:103BB000002039480021FA2A02D1C18001228270F6
:103BC0009DF80030354AFB2B08D09DF80030FD2BC6
:103BD0000AD09DF80030FF2B10D01AE0C388012BCB
:103BE00017D0C180817014E0B0F90630D41814F8F1
:103BF000014CFC2C0BD1042B09D10AE0B0F90630A2
:103C0000D41814F8014CFE2C01D11A2B01D081706C
:103C1000C180B0F906301B2B03D08478012C03D06F
:103C200007E0C180817004E09DF80040D4545B1C23
:103C3000C3801378FA2B27D15378FB2B24D1D37868
:103C4000FC2B21D11379FD2B1ED1537EFE2B1BD1D2
:103C5000937EFF2B18D1114B01701E3BC180D3F80E
:103C60002340DC63D3F827401C64D3F82B405C640A
:103C7000D3F82F409C64D3F83340DC640523D1543F
:103C80005B1C1B2BFBDB817018BC7047FFE718BC6B
:103C900003F0D6BDD809002034010020BE750020F5
:103CA00038B5094C20680068800608D507480068C8
:103CB000C0B2FCF735FF2068016840680090BDE89D
:103CC00038400148FEF7B6BC1C0A0020047C0040C6
:103CD00010B5806B0021C185C184FEF7AAFC10BD20
:103CE00070B5846B2068406994F83D10C0F3C01033
:103CF0000025212904D118B1E584204600F0B0F850
:103D00002068406994F83E10C0F38010222904D145
:103D100018B1E585204600F07CF8206C40F01000DA
:103D200020642046FEF785FC70BD10B50146806B0F
:103D300009680968C9052FD40021C18501680C31C3
:103D400051E8002F22F4807241E80023002BF5D1C6
:103D50000168143151E8002F22F0010241E80023EC
:103D6000002BF5D10168143151E8002F22F04002F8
:103D700041E80023002BF5D1202180F83E10016B93
:103D8000012909D101680C3151E8002F22F01002FD
:103D900041E80023002BF5D1016B012902D0FEF789
:103DA00082FF10BD818DFEF743FC10BD10B5806B06
:103DB000016B012902D0FEF777FF10BD818D490804
:103DC000FEF736FC10BD10B50146806B0968096826
:103DD000C90516D40021C1840168143151E8002FAF
:103DE00022F0800241E80023002BF5D101680C315C
:103DF00051E8002F42F0400241E80023002BF5D1AA
:103E000010BDFEF7F3FF10BD10B5806BFEF7EFFF9E
:103E100010BD01680C3151E8002F22F4907241E886
:103E20000023002BF5D10168143151E8002F22F056
:103E3000010241E80023002BF5D1016B012909D1D2
:103E400001680C3151E8002F22F0100241E80023F4
:103E5000002BF5D1202180F83E100021016370472E
:103E600001680C3151E8002F22F0C00241E8002324
:103E7000002BF5D1202180F83D10704708B590F84F
:103E80003E10222901D0022008BD82684FF48053E1
:103E90009A4201D1016921B1816A9A421BD04AB18B
:103EA0000AE00268816A5268C2F308020A80816AE5
:103EB000891C08E0026972B10268526802F07F0250
:103EC0000A70816A491C8162C18D491E0904090C6E
:103ED000C18503D019E002685268F1E70168CA6839
:103EE00022F02002CA600168CA6822F48072CA60A7
:103EF00001684A6922F001024A61202180F83E10DF
:103F0000016B012903D0FEF7CEFE002008BD002181
:103F1000016301680C3151E8002F22F0100241E8E2
:103F20000023002BF5D101680A68D20602D50A6881
:103F300049680091818DFEF77BFBE6E770B504468A
:103F400000680169E26821F440511143016121696F
:103F5000A068E26908436169114308432168CA689F
:103F600049F20C639A430243CA6020684169A2691E
:103F700021F440711143416131492068884202D0E7
:103F80003049884202D1FDF7ABFE01E0FDF798FE13
:103F9000E2690023192164253226B2F5004F6268D8
:103FA00028D0A0FB0101930F9200FCF756FA0146BE
:103FB000B0FBF5F06FF01802504301EB800006EB08
:103FC0000010B0FBF5F000F0F002B1FBF5F002EBF1
:103FD0000012B1FBF5F06FF01803584301EB8000BD
:103FE00006EB0010B0FBF5F000F00F002168104464
:103FF000886070BDA0FB010192185B41FCF72DFAAF
:104000000146B0FBF5F00201B1FBF5F06FF01803CB
:10401000584301EB800006EBC000B0FBF5F000F068
:10402000F80002EB4002B1FBF5F0584301EB8000D1
:1040300006EBC000B0FBF5F000F00700D6E700008B
:10404000001001400014014038B5816282850025CE
:10405000134604460564222084F83E00A26B1B48E8
:10406000D063A26B1A481064A26B1A48D064A06B8C
:104070000A4605652168A06B091DFDF7D4FB206881
:1040800001684068009084F83C5020680C3050E88B
:10409000001F41F4807140E80012002AF5D1206829
:1040A000143050E8001F41F0010140E80012002ADE
:1040B000F5D12068143050E8001F41F0400140E87D
:1040C0000012002AF5D1002038BD00002B3D000869
:1040D000AD3D0008E13C00082DE9F0419846174647
:1040E0000E460446069D27E0681C25D02DB1FDF73D
:1040F000F1FCA0EB0800A8421ED920680C3050E863
:10410000001F21F4D07140E80012002AF5D1206888
:10411000143050E8001F21F0010140E80012002A8D
:10412000F5D1202084F83D0084F83E00002084F87A
:104130003C000320BDE8F0812068006836EA0000FA
:1041400004D00020B842CFD00020F3E70120F9E7E7
:1041500010B503F091FBBDE810400148FEF76ABAC4
:10416000600A002010B503F0E1FBBDE810400148F3
:10417000FEF760BAA40A002038B5184D2868006818
:10418000C00625D54E2216492846FEF777FD144A6B
:104190009078C8B9134C4D202168135C401E03EB86
:1041A00001214A28F9DA216012210D4802F0CCFAE7
:1041B0002168884208D10C484E2209490446FCF780
:1041C000C3F9204602F0DEFA2868016840680090D2
:1041D000BDE838400148FEF72DBA0000E80A00208B
:1041E00082700020FC00002038760020FEE703B437
:1041F00001984100009850EAC12018BF04204A0DE0
:1042000018BF40F0010040F2FF72B2EB515F08BFEF
:1042100040F00200012808BF052002B070470907DE
:10422000090E002804DB00F1E02080F8001470473C
:1042300000F00F0000F1E02080F8141D704700002E
:1042400010B5B94A2DED020B2DED0C8B82B00F99F4
:1042500021F000409FEDB6CB90422CDBA0F1405303
:104260000E9AA3F17F631A430FD0B349884202DC50
:1042700016D10E98A0B19DED0E0B02B0BDEC0C8BCB
:1042800002B0BDE8104000F0ACBB0029C1BF9FEDFB
:10429000AC0B02B0BDEC0C8B02B0C8BF10BD16E079
:1042A0000120FCF722FA02B0BDEC0C8B02B0BDE895
:1042B000104000F0A1BBA44A9FEDA59B9FEDA6ABCB
:1042C00090425EDAA6499FEDA8CB814208DBB0EEB2
:1042D0004C0AF0EE6C0A02B0BDEC0C8B02B010BDC3
:1042E0009DED0E0B53EC102B51EC100B04F0C2FFA4
:1042F00041EC180B9E480621B0EE480AF0EE680A21
:10430000784400F0F2FA53EC182B51EC100B04F047
:10431000B1FF41EC1B0B9748B0EE480AF0EE680A7B
:104320000421784400F0E1FA53EC182B51EC100B07
:1043300004F0A0FF53EC192B04F0AAFC41EC100B85
:1043400051EC1B0B53EC102B04F0C8FD41EC100B8F
:1043500053EC102B9DED0E0B51EC100B04F08AFF6B
:1043600053EC1A2B05F026F99DED0E1B53EC112B87
:1043700005F020F953EC1C2B05F01CF941EC100B57
:10438000A9E79FED7D8B9FED7EBB9DED0E0B002978
:1043900053EC192B51EC100B52DA04F079FC53EC6E
:1043A000182B04F067FF41EC180B77480621B0EE9C
:1043B000480AF0EE680A784400F097FA53EC182B9C
:1043C00051EC100B04F056FF41EC1D0B6F48B0EEA2
:1043D000480AF0EE680A0421784400F086FA53ECAB
:1043E000182B51EC100B04F045FF53EC192B04F083
:1043F0004FFC41EC190B51EC180B03F0DCF941ECCC
:10440000180B53EC192B51EC1D0B04F067FD53EC0A
:10441000182B04F02FFF53EC1A2B05F0F7F941ECA1
:10442000100B51EC180B53EC102B04F031FC53EC37
:104430001B2B04F01FFF53EC1C2B05F0BBF86DE0A9
:1044400005F0B8F853EC182B04F014FF41EC180BEE
:1044500003F0B1F941EC1A0B00208DED00AB009098
:104460009DED000B51EC1A0B53EC102B04F010FCDB
:104470009DED000B41EC1C0B53EC102B51EC100B81
:1044800004F0F8FE53EC182B05F094F853EC1C2BB9
:1044900004F024FD41EC1C0B3D48B0EE480AF0EE60
:1044A000680A0621784400F020FA53EC182B51ECEE
:1044B000100B04F0DFFE41EC1D0B3648B0EE480A4D
:1044C000F0EE680A0421784400F00FFA53EC182B40
:1044D00051EC100B04F0CEFE53EC192B04F0D8FB7A
:1044E00041EC100B51EC1D0B53EC102B04F0F6FCBF
:1044F00053EC1A2B04F0BEFE53EC1C2B04F0C8FB4B
:1045000041EC100B53EC102B9DED000B51EC100BFC
:1045100004F0BEFB53EC1B2B04F0ACFE41EC100B83
:10452000D9E60000000000000000F03F000000009D
:10453000182D4454FB2109400000F07F00000000CA
:1045400000000000000000000000E03F000000004C
:10455000000000000000F03F075C143326A6913CE9
:104560000000603C00000000182D4454FB21F93F7E
:104570002468000032680000000000000000E03FF6
:1045800000000000000000406E6700007C67000033
:10459000806600008E66000070B59B482DED020B12
:1045A0002DED068B079D25F00044A04218DC9748AE
:1045B000844202DC0AD1069840B19DED060BBDECA9
:1045C000068B02B0BDE8704000F00BBA002DCCBFE6
:1045D0009FED8F0B9FED900BBDEC068B02B070BD75
:1045E0008F48A04215DD8F48A042D8BF4FF0FF345E
:1045F00058DD9DED060B51EC100BFFF7F8FD04287C
:1046000008BF00F009FA9DED060BBDEC068B02B069
:1046100070BD9DED060B51EC100B02F01BF9CDE9BE
:10462000060181489FED828BA0423CDD8248A0427A
:104630001FDD00249FED82AB9DED060B53EC1A2B82
:1046400051EC100B04F024FB9DED060B41EC190B13
:1046500053EC1A2B51EC100B04F00CFE53EC182BFE
:1046600005F0D4F853EC192B04F038FCCDE9060121
:1046700049E09DED060B012453EC182B51EC100B77
:1046800004F006FB9DED060B41EC190B53EC182BC7
:1046900051EC100B05F0BAF853EC192B04F01EFC8A
:1046A000CDE906012FE06848A0421FDD02249FEDFE
:1046B000689B9DED060B53EC192B51EC100B04F08D
:1046C000D9FD53EC182B04F0E3FA9DED060B41ECF9
:1046D000180B53EC192B51EC100B05F097F853EC19
:1046E000182B04F0FBFBCDE906010CE09DED060B59
:1046F000032453EC102B9FED580B51EC100B04F0DE
:10470000EDFBCDE906019DED060B53EC102B51ECB2
:10471000100B04F0AFFD41EC180B53EC182B04F018
:10472000A9FD41EC190B4E480621B0EE490AF0EE06
:10473000690A784400F0D9F853EC182B51EC100BAF
:1047400004F098FD41EC180B4648B0EE490AF0EE33
:10475000690A0521784400F0C8F853EC192B51EC94
:10476000100B04F087FD41EC100B51EC180B53ECCF
:10477000102B002C0EDA04F08BFA9DED061B53EC87
:10478000112B04F077FD9DED061B53EC112B04F06B
:1047900011FF35E004F07CFA9DED061B53EC112B64
:1047A00004F068FD41EC100B2F48784400EBC40086
:1047B00090ED001B51EC100B53EC112B05F026F87B
:1047C0009DED061B53EC112B05F020F841EC100B6E
:1047D0002648784400EBC40090ED001B51EC100B10
:1047E00053EC112B04F0E6FE41EC100B002DA2BFA0
:1047F000BDEC068B02B070BD51EC100B04F0DAF882
:1048000041EC100B01E70000000010440000F07FB5
:10481000182D4454FB21F93F182D4454FB21F9BFB6
:104820000000DC3F0000203E0000F33F00000000DD
:10483000000000000000F03F0000E63F0000000024
:104840000000000000000040008003400000000065
:10485000000000000000F83F000000000000F0BF72
:10486000AA64000060640000EA630000A263000024
:1048700000B52DED048BB0EE409AF0EE609A83B057
:1048800051EC190B04F0BEFE41EC180B18EE100AA7
:1048900018EE901A8DED008B002818BF01200843F8
:1048A00020F00040C0F17F6000F1E040C00F14D064
:1048B00019EE101A19EE900A8DED009B002918BF11
:1048C0000121084320F00040C0F17F6000F1E0408A
:1048D000C00F04BF0120FBF708FFB0EE480A03B089
:1048E000F0EE680ABDEC048B00BD70B504462DEDFA
:1048F000028B4D1E00EBC500B0EE408AF0EE608AE0
:1049000090ED000B35F0060017D053EC182B51EC4E
:10491000100B04F0AFFC41EC100B6D1E04EBC50056
:1049200090ED001B51EC100B53EC112B04F0B0F97F
:1049300041EC100B35F00600E7D1022D36D0042DE6
:104940001CD0062D1CBFBDEC028B70BD53EC182B88
:1049500051EC100B04F08EFC94ED0A1B53EC112B60
:1049600004F096F953EC182B04F084FC94ED081B2A
:1049700053EC112B04F08CF941EC100B53EC182B79
:1049800051EC100B04F076FC94ED061B53EC112B4C
:1049900004F07EF953EC182B04F06CFC94ED040B3E
:1049A00053EC102B04F074F941EC100B53EC182B62
:1049B00051EC100B04F05EFC94ED021B53EC112B38
:1049C00004F066F953EC182B04F054FC94ED001B32
:1049D00053EC112B04F05CF9BDEC028B41EC100B95
:1049E00070BD10B553EC102B51EC100B04F050F9C6
:1049F00041EC100B10BD00009FED050B10B553EC02
:104A0000102B51EC100B04F069FA41EC100B10BDA7
:104A100000000000000000009FED050B10B553ECF6
:104A2000102B51EC100B04F025FC41EC100B10BDC9
:104A30000000000000000010704770472DE9F041B1
:104A40000546454845490126D0F800C00027444C9A
:104A50008C4514DA43688B4211DA82688A420EDA96
:104A6000D0F80CE08E450ADA3E48844507D28342EE
:104A700005D2824203D2864501D2277000E026701B
:104A8000012002F0E1F895F9180095F91510884217
:104A900002D0607880B1677095F91D0095F91A1001
:104AA000884202D0A07848B1A7702F48C069022878
:104AB00006D0012806D006E06670EDE7A670F4E7A0
:104AC000A67000E0A77095F9220095F91F108842A2
:104AD00002D0E07880B3E7702448B6EE001A4FF4B5
:104AE000FA730068B0F90C1000EE101A40F6C41109
:104AF000F8EEC00A94ED030A00EE810A84ED030A81
:104B0000B0F90E00BCEEC00A00EE900A10EE100ADA
:104B1000F8EEE01AD4ED040A82B28A4241EE810A2C
:104B2000C4ED040ABCEEE00AE28010EE100A80B286
:104B3000208104D9E18005E0FFE7E670CCE79A42E6
:104B400000D2E380884202D92181BDE8F0819842F9
:104B5000FBD22381F9E70000DC750020CDCCCC3DF1
:104B600020010020CDCCCCBD6075002074710020E8
:104B700010B504460921143001F024FF082104F186
:104B8000190001F01FFF0521204601F01BFF0A4814
:104B900000219FED0A0A817001704170C17080EDA3
:104BA000030A80ED040A40F2DC51C1800181BDE8B6
:104BB0001040480002F048B8200100200080BB44AB
:104BC0001A48FFF7D5FF19480026194D194C01273F
:104BD0004FF0020800F1140A00F119092868C07AA0
:104BE000032804D0012804D0022804D005E026714F
:104BF00003E0277101E084F804802079012807D1BF
:104C00000221504601F0E5FE0221484601F0E1FE96
:104C10000221484601F0DDFE0448FFF70FFF00F0D7
:104C20000BF80A2002F010F8D8E7000040740020CA
:104C3000747100202001002070B51E4C1E4D20789C
:104C400001282AD0002202212846FCF73DFF607887
:104C5000012824D0012201212846FCF735FFA07845
:104C6000164D01281DD0002240212846FCF72CFFBC
:104C7000E078012817D0002210212846FCF724FFF5
:104C8000002220212846FCF71FFF0D48E18802681A
:104C9000516300682189016470BD0122D3E70022BD
:104CA000D9E70122E0E7012210212846FCF70CFF9A
:104CB0000122E6E72001002000140240001002401B
:104CC000C008002070B590F92E3090F931500124C1
:104CD00000223849AB4202D0CB7883B3CA7090F936
:104CE000333090F93650AB4202D00B7943B30A719E
:104CF00090F9383090F93B50AB4200D08C7190F96C
:104D0000563090F95950AB4201D008238B7190F97D
:104D1000473090F94A50AB4202D08B78ABB18A70E1
:104D200090F94C5090F94F60234BB54215D0D3F811
:104D300019506DB1052D0BD0012D0CD00DE000E008
:104D400001E0CC70CBE70C71D2E78C704A71E7E7D9
:104D5000C3F8194001E0C3F8192090F9515090F9B7
:104D60005460B5420AD0D3F8195025B1052D02D0B0
:104D7000022D01D002E00222C3F8192090F942204E
:104D800090F94550AA4206D0D3F81920042A02D13E
:104D90000522C3F8192010F93D2F90F90300824233
:104DA00003D04A7904200AB1487170BDC3F81900D4
:104DB0004C7170BD4C0100204275002070B52E4C26
:104DC00000262DED028B05466670E6702671A671F1
:104DD0002B48A6709FED298A268180ED008A80ED00
:104DE000018A80ED028A80ED038A80ED048A0C211D
:104DF00005F12D0001F0E6FD0B2105F13C0001F06D
:104E0000E1FD0D2105F1320001F0DCFD092105F184
:104E1000370001F0D7FD0E2105F1410001F0D2FD70
:104E20000F2105F1460001F0CDFD0B2105F14B00EE
:104E300001F0C8FD0C2105F1500001F0C3FD0A216D
:104E400005F1550001F0BEFD84ED038A84ED048A6E
:104E5000667184ED0A8A84ED058A84ED068A84ED04
:104E6000078A84ED088A84ED098A84ED0B8A84ED33
:104E70000C8ABDEC028B70BD4C01002000000000CC
:104E80001077002010B504461B48007880B1022836
:104E900030D11A4900208870022104F14B0001F042
:104EA00098FD022104F15000BDE8104001F091BDD1
:104EB000022104F12D0001F08CFD022104F13200E9
:104EC00001F087FD022104F1370001F082FD02218B
:104ED00004F13C0001F07DFD022104F1410001F0EC
:104EE00078FD022104F1460001F073FD022104F176
:104EF0005500D9E710BD0000240100204C0100201E
:104F00002DE9F04FDFF8E8932DED028B99F803C0FF
:104F10009FEDF84ADFEDF82A4FF0060B4FF0070E31
:104F20009FEDF63ADFEDF63AF64D0123F64C0226F8
:104F30004FF0040A0327DFEDF50A4A46B2F808806D
:104F400000229FEDF30ABCF1010F20D09FEDF11A72
:104F5000F5EE081ABCF1020F32D0BCF1030F4BD0B2
:104F6000BCF1040F6CD09FEDEC1ABCF1050F7DD0A5
:104F7000BCF1060F7BD0DFEDE91ABCF1070F77D04B
:104F8000BCF1080F75D0BCF1090F73D0F2E080EDD1
:104F90003C0A9FEDE31A81ED001A9FEDE21A81EDC4
:104FA000011A81ED023A9FEDE01ACC4681ED031A19
:104FB000C1ED043AB8F10A0F3CD18CF80360D5E09A
:104FC00080ED3C1A9FEDD61A81ED001A9FEDD51A9F
:104FD00081ED011A9FEDD51A81ED021A9FEDD41AC9
:104FE000CC4681ED031AC1ED041AB8F10A0F21D1A4
:104FF00023708CF80370B9E080ED3C1A9FEDCD1A58
:1050000081ED001A81ED014A81ED020A9FEDCA1A75
:10501000CC4681ED031AC1ED041AB8F10A0F0AD08B
:10502000B8F5FA7F06D3DFF8148398F80080B8F15A
:10503000000F02D09EE02B709CE08CF803A095E05E
:105040009FEDBF1A80ED3C1A81ED004A9FEDBD1A1D
:1050500081ED011A9FEDBC1A81ED021AC1ED030A20
:105060009FEDBA1ACC4681ED041A04E009E023E072
:1050700045E058E068E0B8F10A0F7BD14FF0050831
:105080004EE0C0ED3C2A81ED001A9FEDB11A81ED92
:10509000011ABFEE001A81ED021AB7EE001A81ED77
:1050A000031A9FEDAA1ACC4681ED041AB8F10A0F33
:1050B00060D18CF803B059E09FEDA61A80ED3C1A40
:1050C00081ED004A9FEDA41A81ED011A9FEDA31A0C
:1050D00081ED021A9FEDA21A81ED031A9FEDA11A2C
:1050E000CC4681ED041AB8F1640F03D0B8F1FA0F81
:1050F00002D03FE02A703DE08CF803E036E0C0EDDE
:105100003C2A81ED020A81ED030A81ED040ACC46B6
:1051100081EC021AB8F10A0F2CD122704FF0080866
:105120008CF8038022E080ED3C0A81ED020A81EDDB
:10513000030A81ED040ACC4681EC021AB8F10A0F89
:1051400018D14FF00908EBE780ED3C0A81ED000A29
:1051500081ED010A81ED020A81ED030A81ED040A65
:10516000CC46B8F10A0F05D18CF803208CF800204A
:10517000A9F8082099F80480CC469FED7B6ADFED02
:105180007B6ADFED7B4A9FED7B5ADFED7B5A9FED1B
:105190007B2A9FED7B1ADFED7B1AB8F1010F16D049
:1051A0009FED797AB8F1020F23D0B8F1030F32D016
:1051B000B8F1040F47D0B8F1050F5BD0B8EE084A3C
:1051C000B8F1060F7CD0B8F1070F73D0F9E080ED8D
:1051D0003C0A81ED023AC1ED030AC1ED043A81ECCB
:1051E000021ABCF80880B8F1020F26D18CF80460CE
:1051F000E3E0C0ED3C2A81ED020AC1ED030A81ED36
:10520000047A81EC021ABCF80880B8F1020F14D1BC
:105210008CF80470D1E080ED3C2A81ED020AC1EDEA
:10522000035A81ED047AC1EC024ABCF80880B8F157
:10523000320F03D0B8F1460F02D0C2E02B70C0E0AD
:105240008CF804A0B9E0C0ED3C2A81ED020ADFED44
:105250003F2AC1ED030AC1ED042A81EC026ABCF8C1
:105260000880B8F1020F23D123704FF005088CF8A5
:105270000480A2E0DFED372AC0ED3C2ADFED362ABC
:1052800081ED004AC1ED012ADFED342AC1ED022A89
:10529000DFED332AC1ED032ADFED3C2AC1ED042AFC
:1052A000BCF80880B8F1320F05D0B8F1460F04D031
:1052B00087E005E06CE02A7083E08CF804B07CE0C5
:1052C000C0ED3C2A81ED001A81ED014AC1ED020AD0
:1052D000DFED1E2A81ED030AC1ED042ABCF8088027
:1052E000B8F1140F6DD122708CF804E065E0000075
:1052F0004C010020CDCC4CBF560E4940128340BD1E
:10530000226C183F220100202101002000000080B3
:10531000000000009A99C93FCDCCCCBF79E942C0CA
:10532000190416BF0AD763BF933AA1BE5839B43CDB
:10533000448B6CBE9A9959BF0AD7233D24010020A3
:10534000C74BC73F426005C04260E53B52B8A24030
:1053500079E902C0931850409A9999BEF628BCBFCB
:105360005C8FC23FC3F59C409A9999BF6666E6BFC1
:10537000BE9FAABF3F357EBF5C8FB2BF022B854068
:10538000C3F5C8BF666646C0C3F5484085EBA54077
:1053900080ED3C0A81ED001A81ED014AC1ED020A5F
:1053A0005FED162A81ED030AC1ED042ABCF80880DE
:1053B000B8F1140F05D18CF804208CF80020ACF85B
:1053C00008209CF806809FEDE27ADFEDE27A9FEDFF
:1053D000E24AB8F1010F1BD0B8F1020F2AD0B8F1A0
:1053E000030F39D0B8F1040F4ED0DFEDDC2AB8F14D
:1053F000050F61D09FEDDA8ADFEDDA6AB8F1060FAA
:1054000075D0B8F1070F70D0B8F1080F6ED0ADE0CD
:1054100080ED3C0A81ED023AC1ED030AC1ED043A88
:1054200081EC021ABCF80880B8F1020F26D18CF882
:10543000066097E080ED3C7A81ED020AC1ED030A37
:10544000C1ED047A81EC021ABCF80880B8F1020FB1
:1054500014D18CF8067085E080ED3C2A81ED020ABB
:10546000C1ED035A81ED044AC1EC024ABCF8088040
:10547000B8F1320F03D0B8F1460F02D076E02B70AE
:1054800074E08CF806A06DE080ED3C2ADFEDB62AD2
:10549000C1ED002AC1ED016A81ED020AC1ED030AE6
:1054A0005FED562AC1ED042ABCF80880B8F1020F5E
:1054B0005CD14FF0050853E0C0ED3C2AFFEE082A0E
:1054C000C1ED002AC1ED011A81ED020AC1ED030A06
:1054D0005FED622AC1ED042ABCF80880B8F1020F22
:1054E00044D18CF806B03DE001E017E023E0C0EDC8
:1054F0003C2A81ED006A81ED011ADFED9C2AC1EDA5
:10550000022A81ED038AC1ED046ABCF80880B8F173
:10551000020F2BD123708CF806E023E0C0ED3C2A6B
:1055200081ED006A81ED011AC1ED020A81ED038A65
:10553000C1ED046A1AE0C0ED3C2A81ED001ADFEDEE
:105540008C2AC1ED012AC1ED020AC1ED030AC1EDA9
:10555000046ABCF80880B8F1020F07D14FF00908BF
:105560008CF806808CF80020ACF808209CF80580A8
:10557000DFED802AB8F1010F0ED09FED7F6AB8F100
:10558000020F1CD0B8F1030F2BD0B8F1040F3DD09F
:10559000B8F1050F4ED062E0237080ED3C0AC1EDFA
:1055A000020AC1ED030AC1ED042A81EC021ABCF81B
:1055B0000880B8F1020F52D18CF805604BE080ED05
:1055C0003C6AC1ED020AC1ED030AC1ED042A81EC77
:1055D000021ABCF80880B8F1020F40D18CF80570AF
:1055E00039E080ED3C6A9FED656A81ED006A9FEDD0
:1055F000646A81ED016A9FED636A81ED026A9FED45
:10560000626A81ED036AC1ED042A28E080ED3C6AFC
:10561000C1ED020AC1ED030AC1ED042A81EC021AB0
:10562000BCF80880B8F1140F19D14FF005088CF8B8
:10563000058010E080ED3C0AC1ED020AC1ED030ACD
:10564000C1ED042A81EC021ABCF80880B8F1020FFF
:1056500005D18CF805208CF80020ACF808209CF8C7
:105660000280B8F1010F09D0B8F1020F17D0B8F1DC
:10567000030F25D0B8F1040F3CD045E080ED3C0A83
:1056800081ED023AC1ED030AC1ED043A81EC021A40
:10569000BCF80830022B37D18CF8026025E080ED91
:1056A0003C7A81ED020AC1ED030AC1ED047A81EC76
:1056B000021ABCF80830022B26D18CF8027014E0D4
:1056C00080ED3C2A81ED020AC1ED035A81ED044AC6
:1056D000C1EC024ABCF80860322E02D0462E02D03D
:1056E00012E02B7010E08CF802A08CF80020ACF8CF
:1056F000082009E080ED3C2A81ED020AC1ED030A91
:1057000081ED044A81EC021A9CF801309CF80350A8
:105710002B439CF804502B439CF806502B439CF8D9
:1057200005502B4310D199F80230002B0CD1227078
:1057300080ED3C0A81ED000A81ED010A81ED020A4B
:1057400081ED030A81ED040ABDEC028BBDE8F08F08
:10575000B81E854061E52040F6285C40C3F5C83F8F
:10576000CDCCCCBD85EB8540CDCC8CBFFCA9B1BEEA
:10577000D7A340C0AE47E13E9A9909405C8F42BF33
:105780001F851BC0EC51B8BE3333D3BF0B48FFF7A6
:1057900015FB0A48FFF776FB0848FFF793FA08491C
:1057A000084800F011F8064800F082F8044905485E
:1057B000FFF7A6FB022001F047FAEAE74074002059
:1057C00010770020F075002030B5344A90ED3C1A77
:1057D000B7EE080AD2ED000A314A324B41EE000A18
:1057E00090ED3B0A30EEC00A10EE100A904250DAFB
:1057F00010EE100A2C4CA0424BD22C4891ED000A1E
:10580000D0ED000A30EE600A10EE105A954240DAF0
:1058100010EE105AA5423CD291ED010AD0ED010ADA
:1058200030EE600A10EE105A954232DA10EE105A3D
:10583000A5422ED291ED020AD0ED020A30EE600AA6
:1058400010EE105A954224DA10EE105AA54220D2DA
:1058500091ED030AD0ED030A30EE600A10EE105A03
:10586000954216DA10EE105AA54212D291ED040AB2
:10587000D0ED040A30EE600A10EE100A904208DA09
:1058800010EE100AA04204D2012018701889401CA2
:1058900001E000201870188130BD00004401002094
:1058A0009A99993E4C0100209A9999BEDC75002086
:1058B00070B5FF48FF4E2DED108B02789FEDFEEA8C
:1058C000DFEDFE0AFE4CFF4894ED0A0A006870EE18
:1058D000201A30EE601A9FEDFCAA9FEDFC8ADFEDE6
:1058E000FC8ADFEDFCAA96ED000AD2B39FEDFACB5D
:1058F0009FEDFBDADFEDFB9A9FEDFBBB2146D1ED7F
:10590000070A91ED094A9FEDED2AD1ED045A30EED8
:10591000C23A70EE823A74EE022A34EE422A91EDD7
:10592000034AF7EE000A34EE205A74EE604A35EE70
:10593000A04A75EEE00ADFEDEEDA9FEDEEFAEE4DED
:105940009FEDEE9A012A52D0022A4DD1417E0029C4
:1059500078D0012948D1017D002974D0C4ED0A1AFC
:10596000F1E1FFE7417E0029F2D001293CD1017D20
:1059700011B1C4ED0A1A03E0407D08B184ED0A1AA2
:10598000D4ED0A0AC4ED080AFAF7F0FC20EE0A9AF0
:1059900096ED010AD6ED000A38EE400A30EE200AF4
:1059A000FAF7E4FC00EE289A84ED039A96ED000ADB
:1059B000B1EE400AFAF716FD20EE2A9A96ED010A9A
:1059C000D6ED000A38EE400A30EE200AFAF70AFD5A
:1059D00000EE289A84ED049A84ED05EA84ED06EA47
:1059E00084ED07EA84ED09EABDEC108B70BD017D02
:1059F00011B1C4ED0A1A03E0417D09B184ED0A1A20
:105A0000817D11B184ED073A03E0C17D09B1C4ED98
:105A1000073A817E11B1C4ED092A03E0C17E09B1C4
:105A200084ED092AC17F11B184ED035A04E090F896
:105A3000201009B1C4ED034A90F8211021B184ED82
:105A4000044A06E01FE17AE190F8220008B1C4EDB3
:105A5000040A94ED040AD4ED030A20EE000A00EED5
:105A6000A00A10EE100A04F0D3F941EC100BFEF777
:105A7000FFFE53EC1C2B51EC100B03F0FBFBD4EDA1
:105A8000040AB0EE4D0A41EC1C0B00EEA00AD4ED66
:105A9000030A00EEA00A30EE690A10EE100A04F0C4
:105AA000B7F953EC1C2B03F019FA41EC100BFEF77D
:105AB000C7FBD4ED04EA94ED03EAB0EE40CAF0EE81
:105AC00060CACEEE8EFA1FEE900A04F0A1F941EC06
:105AD000100BFEF761FD53EC1C2B51EC100B03F087
